{
  "contractName": "Decentralized",
  "abi": [
    {
      "inputs": [],
      "payable": false,
      "stateMutability": "nonpayable",
      "type": "constructor"
    },
    {
      "anonymous": false,
      "inputs": [
        {
          "indexed": false,
          "internalType": "uint256",
          "name": "patientId",
          "type": "uint256"
        },
        {
          "indexed": false,
          "internalType": "uint256",
          "name": "doctorId",
          "type": "uint256"
        },
        {
          "indexed": false,
          "internalType": "uint256",
          "name": "finalState",
          "type": "uint256"
        },
        {
          "indexed": false,
          "internalType": "address",
          "name": "start",
          "type": "address"
        },
        {
          "indexed": false,
          "internalType": "address",
          "name": "end",
          "type": "address"
        }
      ],
      "name": "createConsentTest",
      "type": "event"
    },
    {
      "anonymous": false,
      "inputs": [
        {
          "indexed": false,
          "internalType": "uint256",
          "name": "doctorId",
          "type": "uint256"
        },
        {
          "indexed": false,
          "internalType": "string",
          "name": "doctorPassword",
          "type": "string"
        },
        {
          "indexed": false,
          "internalType": "address",
          "name": "doctorAddress",
          "type": "address"
        },
        {
          "indexed": false,
          "internalType": "uint256",
          "name": "hospitalId",
          "type": "uint256"
        },
        {
          "indexed": false,
          "internalType": "string",
          "name": "hospitalName",
          "type": "string"
        }
      ],
      "name": "createDoctorTest",
      "type": "event"
    },
    {
      "anonymous": false,
      "inputs": [
        {
          "indexed": false,
          "internalType": "uint256",
          "name": "nomineeId",
          "type": "uint256"
        },
        {
          "indexed": false,
          "internalType": "string",
          "name": "nomineePassword",
          "type": "string"
        },
        {
          "indexed": false,
          "internalType": "address",
          "name": "nomineeAddress",
          "type": "address"
        },
        {
          "indexed": false,
          "internalType": "uint256",
          "name": "val",
          "type": "uint256"
        }
      ],
      "name": "createNomineeTest",
      "type": "event"
    },
    {
      "anonymous": false,
      "inputs": [
        {
          "indexed": false,
          "internalType": "uint256",
          "name": "patientId",
          "type": "uint256"
        },
        {
          "indexed": false,
          "internalType": "string",
          "name": "patientPassword",
          "type": "string"
        },
        {
          "indexed": false,
          "internalType": "address",
          "name": "patientAddress",
          "type": "address"
        }
      ],
      "name": "createPatientTest",
      "type": "event"
    },
    {
      "anonymous": false,
      "inputs": [
        {
          "indexed": false,
          "internalType": "uint256",
          "name": "nomineeId",
          "type": "uint256"
        },
        {
          "indexed": false,
          "internalType": "string",
          "name": "nomineePassword",
          "type": "string"
        },
        {
          "indexed": false,
          "internalType": "address",
          "name": "nomineeAddress",
          "type": "address"
        },
        {
          "indexed": false,
          "internalType": "uint256",
          "name": "val",
          "type": "uint256"
        }
      ],
      "name": "removeNomineeTest",
      "type": "event"
    },
    {
      "anonymous": false,
      "inputs": [
        {
          "indexed": false,
          "internalType": "uint256",
          "name": "patientId",
          "type": "uint256"
        },
        {
          "indexed": false,
          "internalType": "uint256",
          "name": "doctorId",
          "type": "uint256"
        },
        {
          "indexed": false,
          "internalType": "uint256",
          "name": "finalState",
          "type": "uint256"
        },
        {
          "indexed": false,
          "internalType": "address",
          "name": "start",
          "type": "address"
        },
        {
          "indexed": false,
          "internalType": "address",
          "name": "end",
          "type": "address"
        }
      ],
      "name": "requestConsentTest",
      "type": "event"
    },
    {
      "anonymous": false,
      "inputs": [
        {
          "indexed": false,
          "internalType": "uint256",
          "name": "patientId",
          "type": "uint256"
        },
        {
          "indexed": false,
          "internalType": "uint256",
          "name": "doctorId",
          "type": "uint256"
        },
        {
          "indexed": false,
          "internalType": "uint256",
          "name": "finalState",
          "type": "uint256"
        },
        {
          "indexed": false,
          "internalType": "address",
          "name": "start",
          "type": "address"
        },
        {
          "indexed": false,
          "internalType": "address",
          "name": "end",
          "type": "address"
        }
      ],
      "name": "revokeConsentTest",
      "type": "event"
    },
    {
      "constant": true,
      "inputs": [
        {
          "internalType": "uint256",
          "name": "",
          "type": "uint256"
        },
        {
          "internalType": "uint256",
          "name": "",
          "type": "uint256"
        }
      ],
      "name": "docToPatient",
      "outputs": [
        {
          "internalType": "uint256",
          "name": "",
          "type": "uint256"
        }
      ],
      "payable": false,
      "stateMutability": "view",
      "type": "function"
    },
    {
      "constant": true,
      "inputs": [],
      "name": "doctorCount",
      "outputs": [
        {
          "internalType": "uint256",
          "name": "",
          "type": "uint256"
        }
      ],
      "payable": false,
      "stateMutability": "view",
      "type": "function"
    },
    {
      "constant": true,
      "inputs": [
        {
          "internalType": "uint256",
          "name": "",
          "type": "uint256"
        }
      ],
      "name": "doctorMap",
      "outputs": [
        {
          "internalType": "uint256",
          "name": "doctorId",
          "type": "uint256"
        },
        {
          "internalType": "string",
          "name": "doctorPassword",
          "type": "string"
        },
        {
          "internalType": "address",
          "name": "doctorAddress",
          "type": "address"
        },
        {
          "internalType": "uint256",
          "name": "hospitalId",
          "type": "uint256"
        },
        {
          "internalType": "string",
          "name": "hospitalName",
          "type": "string"
        }
      ],
      "payable": false,
      "stateMutability": "view",
      "type": "function"
    },
    {
      "constant": true,
      "inputs": [
        {
          "internalType": "address",
          "name": "",
          "type": "address"
        }
      ],
      "name": "inverseDoctorMap",
      "outputs": [
        {
          "internalType": "uint256",
          "name": "",
          "type": "uint256"
        }
      ],
      "payable": false,
      "stateMutability": "view",
      "type": "function"
    },
    {
      "constant": true,
      "inputs": [
        {
          "internalType": "address",
          "name": "",
          "type": "address"
        }
      ],
      "name": "inversePatientMap",
      "outputs": [
        {
          "internalType": "uint256",
          "name": "",
          "type": "uint256"
        }
      ],
      "payable": false,
      "stateMutability": "view",
      "type": "function"
    },
    {
      "constant": true,
      "inputs": [],
      "name": "name",
      "outputs": [
        {
          "internalType": "string",
          "name": "",
          "type": "string"
        }
      ],
      "payable": false,
      "stateMutability": "view",
      "type": "function"
    },
    {
      "constant": true,
      "inputs": [],
      "name": "nomineeCount",
      "outputs": [
        {
          "internalType": "uint256",
          "name": "",
          "type": "uint256"
        }
      ],
      "payable": false,
      "stateMutability": "view",
      "type": "function"
    },
    {
      "constant": true,
      "inputs": [
        {
          "internalType": "uint256",
          "name": "",
          "type": "uint256"
        },
        {
          "internalType": "uint256",
          "name": "",
          "type": "uint256"
        }
      ],
      "name": "nomineeToPatient",
      "outputs": [
        {
          "internalType": "uint256",
          "name": "",
          "type": "uint256"
        }
      ],
      "payable": false,
      "stateMutability": "view",
      "type": "function"
    },
    {
      "constant": true,
      "inputs": [],
      "name": "owner",
      "outputs": [
        {
          "internalType": "address",
          "name": "",
          "type": "address"
        }
      ],
      "payable": false,
      "stateMutability": "view",
      "type": "function"
    },
    {
      "constant": true,
      "inputs": [],
      "name": "patientCount",
      "outputs": [
        {
          "internalType": "uint256",
          "name": "",
          "type": "uint256"
        }
      ],
      "payable": false,
      "stateMutability": "view",
      "type": "function"
    },
    {
      "constant": true,
      "inputs": [
        {
          "internalType": "uint256",
          "name": "",
          "type": "uint256"
        }
      ],
      "name": "patientMap",
      "outputs": [
        {
          "internalType": "uint256",
          "name": "patientId",
          "type": "uint256"
        },
        {
          "internalType": "string",
          "name": "patientPassword",
          "type": "string"
        },
        {
          "internalType": "address",
          "name": "patientAddress",
          "type": "address"
        }
      ],
      "payable": false,
      "stateMutability": "view",
      "type": "function"
    },
    {
      "constant": true,
      "inputs": [
        {
          "internalType": "uint256",
          "name": "",
          "type": "uint256"
        },
        {
          "internalType": "uint256",
          "name": "",
          "type": "uint256"
        }
      ],
      "name": "patientToDoc",
      "outputs": [
        {
          "internalType": "uint256",
          "name": "",
          "type": "uint256"
        }
      ],
      "payable": false,
      "stateMutability": "view",
      "type": "function"
    },
    {
      "constant": true,
      "inputs": [
        {
          "internalType": "uint256",
          "name": "",
          "type": "uint256"
        },
        {
          "internalType": "uint256",
          "name": "",
          "type": "uint256"
        }
      ],
      "name": "patientToNominee",
      "outputs": [
        {
          "internalType": "uint256",
          "name": "",
          "type": "uint256"
        }
      ],
      "payable": false,
      "stateMutability": "view",
      "type": "function"
    },
    {
      "constant": false,
      "inputs": [
        {
          "internalType": "string",
          "name": "password",
          "type": "string"
        }
      ],
      "name": "createPatient",
      "outputs": [],
      "payable": false,
      "stateMutability": "nonpayable",
      "type": "function"
    },
    {
      "constant": false,
      "inputs": [
        {
          "internalType": "uint256",
          "name": "patientId",
          "type": "uint256"
        },
        {
          "internalType": "uint256",
          "name": "nomineeId",
          "type": "uint256"
        }
      ],
      "name": "createNominee",
      "outputs": [],
      "payable": false,
      "stateMutability": "nonpayable",
      "type": "function"
    },
    {
      "constant": false,
      "inputs": [
        {
          "internalType": "uint256",
          "name": "patientId",
          "type": "uint256"
        },
        {
          "internalType": "uint256",
          "name": "nomineeId",
          "type": "uint256"
        }
      ],
      "name": "removeNominee",
      "outputs": [],
      "payable": false,
      "stateMutability": "nonpayable",
      "type": "function"
    },
    {
      "constant": false,
      "inputs": [
        {
          "internalType": "string",
          "name": "password",
          "type": "string"
        }
      ],
      "name": "createDoctor",
      "outputs": [],
      "payable": false,
      "stateMutability": "nonpayable",
      "type": "function"
    },
    {
      "constant": false,
      "inputs": [
        {
          "internalType": "uint256",
          "name": "patientId",
          "type": "uint256"
        },
        {
          "internalType": "uint256",
          "name": "doctorId",
          "type": "uint256"
        }
      ],
      "name": "createConsent",
      "outputs": [],
      "payable": false,
      "stateMutability": "nonpayable",
      "type": "function"
    },
    {
      "constant": false,
      "inputs": [
        {
          "internalType": "uint256",
          "name": "patientId",
          "type": "uint256"
        },
        {
          "internalType": "uint256",
          "name": "doctorId",
          "type": "uint256"
        }
      ],
      "name": "revokeConsent",
      "outputs": [],
      "payable": false,
      "stateMutability": "nonpayable",
      "type": "function"
    },
    {
      "constant": false,
      "inputs": [
        {
          "internalType": "uint256",
          "name": "patientId",
          "type": "uint256"
        },
        {
          "internalType": "uint256",
          "name": "doctorId",
          "type": "uint256"
        }
      ],
      "name": "requestConsent",
      "outputs": [],
      "payable": false,
      "stateMutability": "nonpayable",
      "type": "function"
    }
  ],
  "bytecode": "0x60806040523480156200001157600080fd5b506040518060400160405280601981526020017f436f6e73656e74204d616e6167656d656e742053797374656d00000000000000815250600090805190602001906200005f929190620000bf565b5033600160006101000a81548173ffffffffffffffffffffffffffffffffffffffff021916908373ffffffffffffffffffffffffffffffffffffffff1602179055506000600281905550600060038190555060006004819055506200016e565b828054600181600116156101000203166002900490600052602060002090601f016020900481019282601f106200010257805160ff191683800117855562000133565b8280016001018555821562000133579182015b828111156200013257825182559160200191906001019062000115565b5b50905062000142919062000146565b5090565b6200016b91905b80821115620001675760008160009055506001016200014d565b5090565b90565b612ceb806200017e6000396000f3fe608060405234801561001057600080fd5b506004361061012c5760003560e01c80638352a586116100ad578063a0303c4111610071578063a0303c41146107b5578063aad093f6146107d3578063cbb900ea1461082b578063f0ff269314610863578063fbd4dcae146108af5761012c565b80638352a5861461053f578063890f02c3146105fa5780638da5cb5b146106325780638edd5aee1461067c578063989c511e146106d45761012c565b806329b2972e116100f457806329b2972e146102fd57806349e4323c1461034957806349f8ab8714610381578063662cec0c146104d557806378522bc4146105215761012c565b806306fdde03146101315780630b0a8ae5146101b45780630d43a62c146101ec57806311e269211461020a5780632383c44e14610242575b600080fd5b6101396108fb565b6040518080602001828103825283818151815260200191508051906020019080838360005b8381101561017957808201518184015260208101905061015e565b50505050905090810190601f1680156101a65780820380516001836020036101000a031916815260200191505b509250505060405180910390f35b6101ea600480360360408110156101ca57600080fd5b810190808035906020019092919080359060200190929190505050610999565b005b6101f4610e47565b6040518082815260200191505060405180910390f35b6102406004803603604081101561022057600080fd5b810190808035906020019092919080359060200190929190505050610e4d565b005b6102fb6004803603602081101561025857600080fd5b810190808035906020019064010000000081111561027557600080fd5b82018360208201111561028757600080fd5b803590602001918460018302840111640100000000831117156102a957600080fd5b91908080601f016020809104026020016040519081016040528093929190818152602001838380828437600081840152601f19601f820116905080830192505050505050509192919290505050611334565b005b6103336004803603604081101561031357600080fd5b8101908080359060200190929190803590602001909291905050506115d7565b6040518082815260200191505060405180910390f35b61037f6004803603604081101561035f57600080fd5b8101908080359060200190929190803590602001909291905050506115fc565b005b6103ad6004803603602081101561039757600080fd5b8101908080359060200190929190505050611b1d565b60405180868152602001806020018573ffffffffffffffffffffffffffffffffffffffff1673ffffffffffffffffffffffffffffffffffffffff16815260200184815260200180602001838103835287818151815260200191508051906020019080838360005b8381101561042f578082015181840152602081019050610414565b50505050905090810190601f16801561045c5780820380516001836020036101000a031916815260200191505b50838103825284818151815260200191508051906020019080838360005b8381101561049557808201518184015260208101905061047a565b50505050905090810190601f1680156104c25780820380516001836020036101000a031916815260200191505b5097505050505050505060405180910390f35b61050b600480360360408110156104eb57600080fd5b810190808035906020019092919080359060200190929190505050611ca3565b6040518082815260200191505060405180910390f35b610529611cc8565b6040518082815260200191505060405180910390f35b6105f86004803603602081101561055557600080fd5b810190808035906020019064010000000081111561057257600080fd5b82018360208201111561058457600080fd5b803590602001918460018302840111640100000000831117156105a657600080fd5b91908080601f016020809104026020016040519081016040528093929190818152602001838380828437600081840152601f19601f820116905080830192505050505050509192919290505050611cce565b005b6106306004803603604081101561061057600080fd5b81019080803590602001909291908035906020019092919050505061201c565b005b61063a6124ca565b604051808273ffffffffffffffffffffffffffffffffffffffff1673ffffffffffffffffffffffffffffffffffffffff16815260200191505060405180910390f35b6106be6004803603602081101561069257600080fd5b81019080803573ffffffffffffffffffffffffffffffffffffffff1690602001909291905050506124f0565b6040518082815260200191505060405180910390f35b610700600480360360208110156106ea57600080fd5b8101908080359060200190929190505050612508565b60405180848152602001806020018373ffffffffffffffffffffffffffffffffffffffff1673ffffffffffffffffffffffffffffffffffffffff168152602001828103825284818151815260200191508051906020019080838360005b8381101561077857808201518184015260208101905061075d565b50505050905090810190601f1680156107a55780820380516001836020036101000a031916815260200191505b5094505050505060405180910390f35b6107bd6125ea565b6040518082815260200191505060405180910390f35b610815600480360360208110156107e957600080fd5b81019080803573ffffffffffffffffffffffffffffffffffffffff1690602001909291905050506125f0565b6040518082815260200191505060405180910390f35b6108616004803603604081101561084157600080fd5b810190808035906020019092919080359060200190929190505050612608565b005b6108996004803603604081101561087957600080fd5b810190808035906020019092919080359060200190929190505050612b29565b6040518082815260200191505060405180910390f35b6108e5600480360360408110156108c557600080fd5b810190808035906020019092919080359060200190929190505050612b4e565b6040518082815260200191505060405180910390f35b60008054600181600116156101000203166002900480601f0160208091040260200160405190810160405280929190818152602001828054600181600116156101000203166002900480156109915780601f1061096657610100808354040283529160200191610991565b820191906000526020600020905b81548152906001019060200180831161097457829003601f168201915b505050505081565b600182101580156109ac57506002548211155b610a1e576040517f08c379a00000000000000000000000000000000000000000000000000000000081526004018080602001828103825260138152602001807f4e6f7420612076616c69642050617469656e740000000000000000000000000081525060200191505060405180910390fd5b60018110158015610a3157506002548111155b610aa3576040517f08c379a00000000000000000000000000000000000000000000000000000000081526004018080602001828103825260138152602001807f4e6f7420612076616c6964204e6f6d696e65650000000000000000000000000081525060200191505060405180910390fd5b6000600b600084815260200190815260200160002060008381526020019081526020016000205414610b3d576040517f08c379a000000000000000000000000000000000000000000000000000000000815260040180806020018281038252600f8152602001807f4e6f207265636f726420696e204442000000000000000000000000000000000081525060200191505060405180910390fd5b6000600c600083815260200190815260200160002060008481526020019081526020016000205414610bd7576040517f08c379a000000000000000000000000000000000000000000000000000000000815260040180806020018281038252600f8152602001807f4e6f207265636f726420696e204442000000000000000000000000000000000081525060200191505060405180910390fd5b6001600b60008481526020019081526020016000206000838152602001908152602001600020819055506001600c6000838152602001908152602001600020600084815260200190815260200160002081905550610c33612b73565b6005600083815260200190815260200160002060405180606001604052908160008201548152602001600182018054600181600116156101000203166002900480601f016020809104026020016040519081016040528092919081815260200182805460018160011615610100020316600290048015610cf45780601f10610cc957610100808354040283529160200191610cf4565b820191906000526020600020905b815481529060010190602001808311610cd757829003601f168201915b505050505081526020016002820160009054906101000a900473ffffffffffffffffffffffffffffffffffffffff1673ffffffffffffffffffffffffffffffffffffffff1673ffffffffffffffffffffffffffffffffffffffff168152505090507f8adcc7764508c923cc898b3989db6ded3bc64d73e08ef0b9fed4ff7b038db2cc816000015182602001518360400151600160405180858152602001806020018473ffffffffffffffffffffffffffffffffffffffff1673ffffffffffffffffffffffffffffffffffffffff168152602001838152602001828103825285818151815260200191508051906020019080838360005b83811015610e05578082015181840152602081019050610dea565b50505050905090810190601f168015610e325780820380516001836020036101000a031916815260200191505b509550505050505060405180910390a1505050565b60045481565b60018210158015610e6057506002548211155b610ed2576040517f08c379a00000000000000000000000000000000000000000000000000000000081526004018080602001828103825260138152602001807f4e6f7420612076616c69642070617469656e740000000000000000000000000081525060200191505060405180910390fd5b60018110158015610ee557506003548111155b610f57576040517f08c379a00000000000000000000000000000000000000000000000000000000081526004018080602001828103825260128152602001807f4e6f7420612076616c696420646f63746f72000000000000000000000000000081525060200191505060405180910390fd5b60026009600084815260200190815260200160002060008381526020019081526020016000205414610fd4576040517f08c379a0000000000000000000000000000000000000000000000000000000008152600401808060200182810382526022815260200180612c956022913960400191505060405180910390fd5b6002600a600083815260200190815260200160002060008481526020019081526020016000205414611051576040517f08c379a0000000000000000000000000000000000000000000000000000000008152600401808060200182810382526022815260200180612c956022913960400191505060405180910390fd5b611059612baa565b600760008381526020019081526020016000206040518060a001604052908160008201548152602001600182018054600181600116156101000203166002900480601f01602080910402602001604051908101604052809291908181526020018280546001816001161561010002031660029004801561111a5780601f106110ef5761010080835404028352916020019161111a565b820191906000526020600020905b8154815290600101906020018083116110fd57829003601f168201915b505050505081526020016002820160009054906101000a900473ffffffffffffffffffffffffffffffffffffffff1673ffffffffffffffffffffffffffffffffffffffff1673ffffffffffffffffffffffffffffffffffffffff16815260200160038201548152602001600482018054600181600116156101000203166002900480601f01602080910402602001604051908101604052809291908181526020018280546001816001161561010002031660029004801561121c5780601f106111f15761010080835404028352916020019161121c565b820191906000526020600020905b8154815290600101906020018083116111ff57829003601f168201915b50505050508152505090506001600960008581526020019081526020016000206000848152602001908152602001600020819055506001600a60008481526020019081526020016000206000858152602001908152602001600020819055507fc6998457089588e36d7879991f4c354ef7ecf867b8f83bccf315fc616d8d4bed83836001338560400151604051808681526020018581526020018481526020018373ffffffffffffffffffffffffffffffffffffffff1673ffffffffffffffffffffffffffffffffffffffff1681526020018273ffffffffffffffffffffffffffffffffffffffff1673ffffffffffffffffffffffffffffffffffffffff1681526020019550505050505060405180910390a1505050565b6000600660003373ffffffffffffffffffffffffffffffffffffffff1673ffffffffffffffffffffffffffffffffffffffff16815260200190815260200160002054146113e9576040517f08c379a00000000000000000000000000000000000000000000000000000000081526004018080602001828103825260168152602001807f50617469656e7420616c7265616479206578697374730000000000000000000081525060200191505060405180910390fd5b600260008154809291906001019190505550600254600660003373ffffffffffffffffffffffffffffffffffffffff1673ffffffffffffffffffffffffffffffffffffffff16815260200190815260200160002081905550604051806060016040528060025481526020018281526020013373ffffffffffffffffffffffffffffffffffffffff168152506005600060025481526020019081526020016000206000820151816000015560208201518160010190805190602001906114af929190612bef565b5060408201518160020160006101000a81548173ffffffffffffffffffffffffffffffffffffffff021916908373ffffffffffffffffffffffffffffffffffffffff1602179055509050507f6785cee0a2997725db2515d31930d227276f67ab4710baf60e95124cf450c01d600254823360405180848152602001806020018373ffffffffffffffffffffffffffffffffffffffff1673ffffffffffffffffffffffffffffffffffffffff168152602001828103825284818151815260200191508051906020019080838360005b8381101561159857808201518184015260208101905061157d565b50505050905090810190601f1680156115c55780820380516001836020036101000a031916815260200191505b5094505050505060405180910390a150565b6009602052816000526040600020602052806000526040600020600091509150505481565b6001821015801561160f57506002548211155b611681576040517f08c379a00000000000000000000000000000000000000000000000000000000081526004018080602001828103825260138152602001807f4e6f7420612076616c69642070617469656e740000000000000000000000000081525060200191505060405180910390fd5b6001811015801561169457506003548111155b611706576040517f08c379a00000000000000000000000000000000000000000000000000000000081526004018080602001828103825260128152602001807f4e6f7420612076616c696420646f63746f72000000000000000000000000000081525060200191505060405180910390fd5b600060096000848152602001908152602001600020600083815260200190815260200160002054146117a0576040517f08c379a00000000000000000000000000000000000000000000000000000000081526004018080602001828103825260118152602001807f436f6e73656e74204e6f7420476976656e00000000000000000000000000000081525060200191505060405180910390fd5b6000600a60008381526020019081526020016000206000848152602001908152602001600020541461183a576040517f08c379a00000000000000000000000000000000000000000000000000000000081526004018080602001828103825260118152602001807f436f6e73656e74204e6f7420476976656e00000000000000000000000000000081525060200191505060405180910390fd5b611842612baa565b600760008381526020019081526020016000206040518060a001604052908160008201548152602001600182018054600181600116156101000203166002900480601f0160208091040260200160405190810160405280929190818152602001828054600181600116156101000203166002900480156119035780601f106118d857610100808354040283529160200191611903565b820191906000526020600020905b8154815290600101906020018083116118e657829003601f168201915b505050505081526020016002820160009054906101000a900473ffffffffffffffffffffffffffffffffffffffff1673ffffffffffffffffffffffffffffffffffffffff1673ffffffffffffffffffffffffffffffffffffffff16815260200160038201548152602001600482018054600181600116156101000203166002900480601f016020809104026020016040519081016040528092919081815260200182805460018160011615610100020316600290048015611a055780601f106119da57610100808354040283529160200191611a05565b820191906000526020600020905b8154815290600101906020018083116119e857829003601f168201915b50505050508152505090506002600960008581526020019081526020016000206000848152602001908152602001600020819055506002600a60008481526020019081526020016000206000858152602001908152602001600020819055507fa20e4ad50e9616843e67e56a75efdcb687661f981a6304070c9bdf901970902683836002338560400151604051808681526020018581526020018481526020018373ffffffffffffffffffffffffffffffffffffffff1673ffffffffffffffffffffffffffffffffffffffff1681526020018273ffffffffffffffffffffffffffffffffffffffff1673ffffffffffffffffffffffffffffffffffffffff1681526020019550505050505060405180910390a1505050565b6007602052806000526040600020600091509050806000015490806001018054600181600116156101000203166002900480601f016020809104026020016040519081016040528092919081815260200182805460018160011615610100020316600290048015611bcf5780601f10611ba457610100808354040283529160200191611bcf565b820191906000526020600020905b815481529060010190602001808311611bb257829003601f168201915b5050505050908060020160009054906101000a900473ffffffffffffffffffffffffffffffffffffffff1690806003015490806004018054600181600116156101000203166002900480601f016020809104026020016040519081016040528092919081815260200182805460018160011615610100020316600290048015611c995780601f10611c6e57610100808354040283529160200191611c99565b820191906000526020600020905b815481529060010190602001808311611c7c57829003601f168201915b5050505050905085565b600c602052816000526040600020602052806000526040600020600091509150505481565b60035481565b6000600860003373ffffffffffffffffffffffffffffffffffffffff1673ffffffffffffffffffffffffffffffffffffffff1681526020019081526020016000205414611d83576040517f08c379a00000000000000000000000000000000000000000000000000000000081526004018080602001828103825260158152602001807f446f63746f7220616c726561647920657869737473000000000000000000000081525060200191505060405180910390fd5b600360008154809291906001019190505550600354600860003373ffffffffffffffffffffffffffffffffffffffff1673ffffffffffffffffffffffffffffffffffffffff168152602001908152602001600020819055506040518060a0016040528060035481526020018281526020013373ffffffffffffffffffffffffffffffffffffffff168152602001600181526020016040518060400160405280600481526020017f5653474800000000000000000000000000000000000000000000000000000000815250815250600760006003548152602001908152602001600020600082015181600001556020820151816001019080519060200190611e8b929190612bef565b5060408201518160020160006101000a81548173ffffffffffffffffffffffffffffffffffffffff021916908373ffffffffffffffffffffffffffffffffffffffff160217905550606082015181600301556080820151816004019080519060200190611ef9929190612bef565b509050507f06d17bc7f5be71d59c6f9e598b72f89407ba54982492920b1376abb27b56b2d26003548233600160405180858152602001806020018473ffffffffffffffffffffffffffffffffffffffff1673ffffffffffffffffffffffffffffffffffffffff16815260200183815260200180602001838103835286818151815260200191508051906020019080838360005b83811015611fa7578082015181840152602081019050611f8c565b50505050905090810190601f168015611fd45780820380516001836020036101000a031916815260200191505b50838103825260048152602001807f5653474800000000000000000000000000000000000000000000000000000000815250602001965050505050505060405180910390a150565b6001821015801561202f57506002548211155b6120a1576040517f08c379a00000000000000000000000000000000000000000000000000000000081526004018080602001828103825260138152602001807f4e6f7420612076616c69642050617469656e740000000000000000000000000081525060200191505060405180910390fd5b600181101580156120b457506002548111155b612126576040517f08c379a00000000000000000000000000000000000000000000000000000000081526004018080602001828103825260138152602001807f4e6f7420612076616c6964204e6f6d696e65650000000000000000000000000081525060200191505060405180910390fd5b6001600b6000848152602001908152602001600020600083815260200190815260200160002054146121c0576040517f08c379a000000000000000000000000000000000000000000000000000000000815260040180806020018281038252600c8152602001807f5265636f726420696e204442000000000000000000000000000000000000000081525060200191505060405180910390fd5b6001600c60008381526020019081526020016000206000848152602001908152602001600020541461225a576040517f08c379a000000000000000000000000000000000000000000000000000000000815260040180806020018281038252600c8152602001807f5265636f726420696e204442000000000000000000000000000000000000000081525060200191505060405180910390fd5b6000600b60008481526020019081526020016000206000838152602001908152602001600020819055506000600c60008381526020019081526020016000206000848152602001908152602001600020819055506122b6612b73565b6005600083815260200190815260200160002060405180606001604052908160008201548152602001600182018054600181600116156101000203166002900480601f0160208091040260200160405190810160405280929190818152602001828054600181600116156101000203166002900480156123775780601f1061234c57610100808354040283529160200191612377565b820191906000526020600020905b81548152906001019060200180831161235a57829003601f168201915b505050505081526020016002820160009054906101000a900473ffffffffffffffffffffffffffffffffffffffff1673ffffffffffffffffffffffffffffffffffffffff1673ffffffffffffffffffffffffffffffffffffffff168152505090507f6ae2e123031689f5cb22bb44ce5644104023602604123b7c50e5ac2a912a8cde816000015182602001518360400151600060405180858152602001806020018473ffffffffffffffffffffffffffffffffffffffff1673ffffffffffffffffffffffffffffffffffffffff168152602001838152602001828103825285818151815260200191508051906020019080838360005b8381101561248857808201518184015260208101905061246d565b50505050905090810190601f1680156124b55780820380516001836020036101000a031916815260200191505b509550505050505060405180910390a1505050565b600160009054906101000a900473ffffffffffffffffffffffffffffffffffffffff1681565b60066020528060005260406000206000915090505481565b6005602052806000526040600020600091509050806000015490806001018054600181600116156101000203166002900480601f0160208091040260200160405190810160405280929190818152602001828054600181600116156101000203166002900480156125ba5780601f1061258f576101008083540402835291602001916125ba565b820191906000526020600020905b81548152906001019060200180831161259d57829003601f168201915b5050505050908060020160009054906101000a900473ffffffffffffffffffffffffffffffffffffffff16905083565b60025481565b60086020528060005260406000206000915090505481565b6001821015801561261b57506002548211155b61268d576040517f08c379a00000000000000000000000000000000000000000000000000000000081526004018080602001828103825260138152602001807f4e6f7420612076616c69642070617469656e740000000000000000000000000081525060200191505060405180910390fd5b600181101580156126a057506003548111155b612712576040517f08c379a00000000000000000000000000000000000000000000000000000000081526004018080602001828103825260128152602001807f4e6f7420612076616c696420646f63746f72000000000000000000000000000081525060200191505060405180910390fd5b600160096000848152602001908152602001600020600083815260200190815260200160002054146127ac576040517f08c379a00000000000000000000000000000000000000000000000000000000081526004018080602001828103825260118152602001807f436f6e73656e74204e6f7420476976656e00000000000000000000000000000081525060200191505060405180910390fd5b6001600a600083815260200190815260200160002060008481526020019081526020016000205414612846576040517f08c379a00000000000000000000000000000000000000000000000000000000081526004018080602001828103825260118152602001807f436f6e73656e74204e6f7420476976656e00000000000000000000000000000081525060200191505060405180910390fd5b61284e612baa565b600760008381526020019081526020016000206040518060a001604052908160008201548152602001600182018054600181600116156101000203166002900480601f01602080910402602001604051908101604052809291908181526020018280546001816001161561010002031660029004801561290f5780601f106128e45761010080835404028352916020019161290f565b820191906000526020600020905b8154815290600101906020018083116128f257829003601f168201915b505050505081526020016002820160009054906101000a900473ffffffffffffffffffffffffffffffffffffffff1673ffffffffffffffffffffffffffffffffffffffff1673ffffffffffffffffffffffffffffffffffffffff16815260200160038201548152602001600482018054600181600116156101000203166002900480601f016020809104026020016040519081016040528092919081815260200182805460018160011615610100020316600290048015612a115780601f106129e657610100808354040283529160200191612a11565b820191906000526020600020905b8154815290600101906020018083116129f457829003601f168201915b50505050508152505090506000600960008581526020019081526020016000206000848152602001908152602001600020819055506000600a60008481526020019081526020016000206000858152602001908152602001600020819055507f1e24250061651067ec08d6b0e8ce436a5a0d793357c2bdf24694f705630c9bc783836000338560400151604051808681526020018581526020018481526020018373ffffffffffffffffffffffffffffffffffffffff1673ffffffffffffffffffffffffffffffffffffffff1681526020018273ffffffffffffffffffffffffffffffffffffffff1673ffffffffffffffffffffffffffffffffffffffff1681526020019550505050505060405180910390a1505050565b600a602052816000526040600020602052806000526040600020600091509150505481565b600b602052816000526040600020602052806000526040600020600091509150505481565b60405180606001604052806000815260200160608152602001600073ffffffffffffffffffffffffffffffffffffffff1681525090565b6040518060a001604052806000815260200160608152602001600073ffffffffffffffffffffffffffffffffffffffff16815260200160008152602001606081525090565b828054600181600116156101000203166002900490600052602060002090601f016020900481019282601f10612c3057805160ff1916838001178555612c5e565b82800160010185558215612c5e579182015b82811115612c5d578251825591602001919060010190612c42565b5b509050612c6b9190612c6f565b5090565b612c9191905b80821115612c8d576000816000905550600101612c75565b5090565b9056fe436f6e73656e7420526571756573742053656e742062792074686520446f63746f72a265627a7a72315820ce35941cfde8d8b6227ba43f7f871961df53ac68813f79e9a001a6444928c04664736f6c63430005100032",
  "source": "pragma solidity >=0.4.21 <=0.8.11;\n\n\ncontract Decentralized {\n    string public name;\n    address public owner;\n    uint public patientCount;\n    uint public doctorCount;\n    uint public nomineeCount;\n    constructor() public {\n        name = \"Consent Management System\";\n        owner = msg.sender;\n        patientCount = 0;\n        doctorCount = 0;\n        nomineeCount = 0;\n    }\n\n    mapping(uint => Patient) public patientMap;\n    mapping(address => uint) public inversePatientMap;\n    mapping(uint => Doctor) public doctorMap;\n    mapping(address => uint) public inverseDoctorMap;\n\n    //1->Consent Given       0->Consent Not Given\n    mapping(uint=>mapping(uint=>uint)) public patientToDoc;\n    mapping(uint=>mapping(uint=>uint)) public docToPatient;\n    //Exists -> 1   Doesn't exist -> 0\n    mapping(uint=>mapping(uint=>uint)) public patientToNominee;\n    mapping(uint=>mapping(uint=>uint)) public nomineeToPatient;\n\n    struct Patient{\n        uint patientId;\n        string patientPassword;\n        address patientAddress;\n    }\n\n    struct Nominee{\n        uint nomineeId;\n        string nomineePassword;\n        address nomineeAddress;\n    }\n    \n    struct Doctor{\n        uint doctorId;\n        string doctorPassword;\n        address doctorAddress;\n        uint hospitalId;\n        string hospitalName;\n    }\n\n\n    event createPatientTest(\n        uint patientId,\n        string patientPassword,\n        address patientAddress\n    );\n    function createPatient(string memory password) public {\n        require(inversePatientMap[msg.sender] == 0,\"Patient already exists\");\n        patientCount++;\n        inversePatientMap[msg.sender] = patientCount;\n        patientMap[patientCount] = Patient(patientCount,password,msg.sender);\n        emit createPatientTest(patientCount,password,msg.sender);\n    }\n\n\n    event createNomineeTest(\n        uint nomineeId,\n        string nomineePassword,\n        address nomineeAddress,\n        uint val\n    );\n    function createNominee(uint patientId,uint nomineeId) public {\n        require(patientId >= 1 && patientId <= patientCount,\"Not a valid Patient\");\n        require(nomineeId >= 1 && nomineeId <= patientCount,\"Not a valid Nominee\");\n        require(patientToNominee[patientId][nomineeId] == 0,\"No record in DB\");\n        require(nomineeToPatient[nomineeId][patientId] == 0,\"No record in DB\");\n        patientToNominee[patientId][nomineeId] = 1;\n        nomineeToPatient[nomineeId][patientId] = 1;\n        Patient memory n1 = patientMap[nomineeId];\n        emit createNomineeTest(n1.patientId,n1.patientPassword,n1.patientAddress,1);\n    }\n    event removeNomineeTest(\n        uint nomineeId,\n        string nomineePassword,\n        address nomineeAddress,\n        uint val\n    );\n    function removeNominee(uint patientId,uint nomineeId) public {\n        require(patientId >= 1 && patientId <= patientCount,\"Not a valid Patient\");\n        require(nomineeId >= 1 && nomineeId <= patientCount,\"Not a valid Nominee\");\n        require(patientToNominee[patientId][nomineeId] == 1,\"Record in DB\");\n        require(nomineeToPatient[nomineeId][patientId] == 1,\"Record in DB\");\n        patientToNominee[patientId][nomineeId] = 0;\n        nomineeToPatient[nomineeId][patientId] = 0;\n        Patient memory n1 = patientMap[nomineeId];\n        emit removeNomineeTest(n1.patientId,n1.patientPassword,n1.patientAddress,0);\n    }\n\n\n\n    event createDoctorTest(\n        uint doctorId,\n        string doctorPassword,\n        address doctorAddress,\n        uint hospitalId,\n        string hospitalName\n    );\n    function createDoctor(string memory password) public {\n        require(inverseDoctorMap[msg.sender] == 0,\"Doctor already exists\");\n        doctorCount++;\n        inverseDoctorMap[msg.sender] = doctorCount;\n        doctorMap[doctorCount] = Doctor(doctorCount,password,msg.sender,1,\"VSGH\");\n        emit createDoctorTest(doctorCount,password,msg.sender,1,\"VSGH\");\n    }\n\n\n    event createConsentTest(\n        uint patientId,\n        uint doctorId,\n        uint finalState,\n        address start,\n        address end\n    );\n    function createConsent(uint patientId,uint doctorId) public {\n        require(patientId >= 1 && patientId <= patientCount,\"Not a valid patient\");\n        require(doctorId >= 1 && doctorId <= doctorCount,\"Not a valid doctor\");\n        require(patientToDoc[patientId][doctorId] == 2,\"Consent Request Sent by the Doctor\");\n        require(docToPatient[doctorId][patientId] == 2,\"Consent Request Sent by the Doctor\");\n\n        Doctor memory d1 = doctorMap[doctorId];\n        patientToDoc[patientId][doctorId] = 1;\n        docToPatient[doctorId][patientId] = 1;\n        emit createConsentTest(patientId,doctorId,1,msg.sender,d1.doctorAddress);\n    }\n\n    event revokeConsentTest(\n        uint patientId,\n        uint doctorId,\n        uint finalState,\n        address start,\n        address end\n    );\n    function revokeConsent(uint patientId,uint doctorId) public {\n        require(patientId >= 1 && patientId <= patientCount,\"Not a valid patient\");\n        require(doctorId >= 1 && doctorId <= doctorCount,\"Not a valid doctor\");\n        require(patientToDoc[patientId][doctorId] == 1,\"Consent Not Given\");\n        require(docToPatient[doctorId][patientId] == 1,\"Consent Not Given\");\n\n        Doctor memory d1 = doctorMap[doctorId];\n        patientToDoc[patientId][doctorId] = 0;\n        docToPatient[doctorId][patientId] = 0;\n        emit revokeConsentTest(patientId,doctorId,0,msg.sender,d1.doctorAddress);\n    }\n\n    event requestConsentTest(\n        uint patientId,\n        uint doctorId,\n        uint finalState,\n        address start,\n        address end\n    );\n    function requestConsent(uint patientId,uint doctorId) public {\n        require(patientId >= 1 && patientId <= patientCount,\"Not a valid patient\");\n        require(doctorId >= 1 && doctorId <= doctorCount,\"Not a valid doctor\");\n        require(patientToDoc[patientId][doctorId] == 0,\"Consent Not Given\");\n        require(docToPatient[doctorId][patientId] == 0,\"Consent Not Given\");\n\n        Doctor memory d1 = doctorMap[doctorId];\n        patientToDoc[patientId][doctorId] = 2;\n        docToPatient[doctorId][patientId] = 2;\n        emit requestConsentTest(patientId,doctorId,2,msg.sender,d1.doctorAddress);\n    }\n}",
  "sourcePath": "/home/aman/Desktop/healthcare/contracts/Decentralized.sol",
  "compiler": {
    "name": "solc",
    "version": "0.5.16+commit.9c3226ce.Emscripten.clang"
  },
  "schemaVersion": "3.4.5",
  "updatedAt": "2022-03-02T10:03:23.585Z",
  "networkType": "ethereum",
  "devdoc": {
    "methods": {}
  },
  "userdoc": {
    "methods": {}
  }
}